{"abi":[{"type":"constructor","inputs":[{"name":"_esgiCertificate","type":"address","internalType":"address"},{"name":"_esgiYearly","type":"address","internalType":"address"}],"stateMutability":"nonpayable"},{"type":"function","name":"createCertificate","inputs":[{"name":"_studentId","type":"string","internalType":"string"},{"name":"_tokenURI","type":"string","internalType":"string"},{"name":"_years","type":"string","internalType":"string"}],"outputs":[{"name":"","type":"uint256","internalType":"uint256"}],"stateMutability":"nonpayable"},{"type":"function","name":"createPerformance","inputs":[{"name":"_studentId","type":"string","internalType":"string"},{"name":"_tokenURI","type":"string","internalType":"string"},{"name":"_years","type":"string","internalType":"string"}],"outputs":[{"name":"","type":"uint256","internalType":"uint256"}],"stateMutability":"nonpayable"},{"type":"function","name":"getAllCertificates","inputs":[],"outputs":[{"name":"","type":"tuple[]","internalType":"struct IESGINFT.NFTInfo[]","components":[{"name":"tokenId","type":"uint256","internalType":"uint256"},{"name":"studentId","type":"string","internalType":"string"},{"name":"ipfsCID","type":"string","internalType":"string"},{"name":"year","type":"string","internalType":"string"}]}],"stateMutability":"view"},{"type":"function","name":"getAllNFTs","inputs":[],"outputs":[{"name":"","type":"tuple[]","internalType":"struct IESGINFT.NFTInfo[]","components":[{"name":"tokenId","type":"uint256","internalType":"uint256"},{"name":"studentId","type":"string","internalType":"string"},{"name":"ipfsCID","type":"string","internalType":"string"},{"name":"year","type":"string","internalType":"string"}]}],"stateMutability":"view"},{"type":"function","name":"getAllPerformances","inputs":[],"outputs":[{"name":"","type":"tuple[]","internalType":"struct IESGINFT.NFTInfo[]","components":[{"name":"tokenId","type":"uint256","internalType":"uint256"},{"name":"studentId","type":"string","internalType":"string"},{"name":"ipfsCID","type":"string","internalType":"string"},{"name":"year","type":"string","internalType":"string"}]}],"stateMutability":"view"},{"type":"function","name":"getCertInfos","inputs":[{"name":"_tokenId","type":"uint256","internalType":"uint256"}],"outputs":[{"name":"","type":"tuple","internalType":"struct IESGINFT.NFTInfo","components":[{"name":"tokenId","type":"uint256","internalType":"uint256"},{"name":"studentId","type":"string","internalType":"string"},{"name":"ipfsCID","type":"string","internalType":"string"},{"name":"year","type":"string","internalType":"string"}]}],"stateMutability":"view"},{"type":"function","name":"getCertificateMetadata","inputs":[{"name":"_tokenId","type":"uint256","internalType":"uint256"}],"outputs":[{"name":"","type":"string","internalType":"string"}],"stateMutability":"view"},{"type":"function","name":"getCertificatesCount","inputs":[],"outputs":[{"name":"","type":"uint256","internalType":"uint256"}],"stateMutability":"view"},{"type":"function","name":"getNFTInfos","inputs":[{"name":"_tokenId","type":"uint256","internalType":"uint256"}],"outputs":[{"name":"","type":"tuple","internalType":"struct IESGINFT.NFTInfo","components":[{"name":"tokenId","type":"uint256","internalType":"uint256"},{"name":"studentId","type":"string","internalType":"string"},{"name":"ipfsCID","type":"string","internalType":"string"},{"name":"year","type":"string","internalType":"string"}]}],"stateMutability":"view"},{"type":"function","name":"getPerformanceInfos","inputs":[{"name":"_tokenId","type":"uint256","internalType":"uint256"}],"outputs":[{"name":"","type":"tuple","internalType":"struct IESGINFT.NFTInfo","components":[{"name":"tokenId","type":"uint256","internalType":"uint256"},{"name":"studentId","type":"string","internalType":"string"},{"name":"ipfsCID","type":"string","internalType":"string"},{"name":"year","type":"string","internalType":"string"}]}],"stateMutability":"view"},{"type":"function","name":"getPerformanceMetadata","inputs":[{"name":"_tokenId","type":"uint256","internalType":"uint256"}],"outputs":[{"name":"","type":"string","internalType":"string"}],"stateMutability":"view"},{"type":"function","name":"getPerformancesCount","inputs":[],"outputs":[{"name":"","type":"uint256","internalType":"uint256"}],"stateMutability":"view"},{"type":"function","name":"onERC721Received","inputs":[{"name":"","type":"address","internalType":"address"},{"name":"","type":"address","internalType":"address"},{"name":"","type":"uint256","internalType":"uint256"},{"name":"","type":"bytes","internalType":"bytes"}],"outputs":[{"name":"","type":"bytes4","internalType":"bytes4"}],"stateMutability":"pure"},{"type":"function","name":"owner","inputs":[],"outputs":[{"name":"","type":"address","internalType":"address"}],"stateMutability":"view"},{"type":"function","name":"renounceOwnership","inputs":[],"outputs":[],"stateMutability":"nonpayable"},{"type":"function","name":"transferOwnership","inputs":[{"name":"newOwner","type":"address","internalType":"address"}],"outputs":[],"stateMutability":"nonpayable"},{"type":"function","name":"updateCertificate","inputs":[{"name":"_tokenId","type":"uint256","internalType":"uint256"},{"name":"_newIpfsCID","type":"string","internalType":"string"}],"outputs":[],"stateMutability":"nonpayable"},{"type":"function","name":"updatePerformance","inputs":[{"name":"_tokenId","type":"uint256","internalType":"uint256"},{"name":"_newIpfsCID","type":"string","internalType":"string"}],"outputs":[],"stateMutability":"nonpayable"},{"type":"event","name":"CertificateCreated","inputs":[{"name":"owner","type":"address","indexed":true,"internalType":"address"},{"name":"tokenId","type":"uint256","indexed":false,"internalType":"uint256"}],"anonymous":false},{"type":"event","name":"CertificateUpdated","inputs":[{"name":"tokenId","type":"uint256","indexed":false,"internalType":"uint256"},{"name":"newIpfsCID","type":"string","indexed":false,"internalType":"string"}],"anonymous":false},{"type":"event","name":"OwnershipTransferred","inputs":[{"name":"previousOwner","type":"address","indexed":true,"internalType":"address"},{"name":"newOwner","type":"address","indexed":true,"internalType":"address"}],"anonymous":false},{"type":"event","name":"PerformanceCreated","inputs":[{"name":"owner","type":"address","indexed":true,"internalType":"address"},{"name":"tokenId","type":"uint256","indexed":false,"internalType":"uint256"}],"anonymous":false},{"type":"event","name":"PerformanceUpdated","inputs":[{"name":"tokenId","type":"uint256","indexed":false,"internalType":"uint256"},{"name":"newIpfsCID","type":"string","indexed":false,"internalType":"string"}],"anonymous":false},{"type":"error","name":"OwnableInvalidOwner","inputs":[{"name":"owner","type":"address","internalType":"address"}]},{"type":"error","name":"OwnableUnauthorizedAccount","inputs":[{"name":"account","type":"address","internalType":"address"}]}],"bytecode":{"object":"0x60c060405234801561000f575f5ffd5b5060405161121038038061121083398101604081905261002e916100de565b338061005357604051631e4fbdf760e01b81525f600482015260240160405180910390fd5b61005c81610074565b506001600160a01b039182166080521660a05261010f565b5f80546001600160a01b038381166001600160a01b0319831681178455604051919092169283917f8be0079c531659141344cd1fd0a4f28419497f9722a3daafe3b4186f6b6457e09190a35050565b80516001600160a01b03811681146100d9575f5ffd5b919050565b5f5f604083850312156100ef575f5ffd5b6100f8836100c3565b9150610106602084016100c3565b90509250929050565b60805160a05161109a6101765f395f818161027e0152818161037901528181610412015281816104b601528181610833015261093601525f818161030701528181610587015281816105fe01528181610671015281816106c70152610760015261109a5ff3fe608060405234801561000f575f5ffd5b5060043610610111575f3560e01c80638fb03a021161009e578063ac778b8f1161006e578063ac778b8f1461022e578063b3639cbb14610241578063c944ad8e14610254578063e0391b0914610133578063f2fde38b14610267575f5ffd5b80638fb03a021461020057806397cd8c1c1461020857806399523eaf1461021b5780639b32e898146101c6575f5ffd5b80634f9b17b4116100e45780634f9b17b4146101935780634fb98845146101a8578063715018a6146101be57806389812ad5146101c65780638da5cb5b146101e6575f5ffd5b80630485aa621461011557806313fcfe8014610133578063150b7a021461013b57806349a7f9d814610173575b5f5ffd5b61011d61027a565b60405161012a9190610ab2565b60405180910390f35b61011d610303565b61015a610149366004610b30565b630a85bd0160e11b95945050505050565b6040516001600160e01b0319909116815260200161012a565b610186610181366004610bc3565b610360565b60405161012a9190610bda565b6101a66101a1366004610cd7565b6103f3565b005b6101b06104b3565b60405190815260200161012a565b6101a6610534565b6101d96101d4366004610bc3565b610547565b60405161012a9190610d1a565b5f546040516001600160a01b03909116815260200161012a565b6101b06105fb565b610186610216366004610bc3565b610658565b6101a6610229366004610cd7565b6106a8565b6101b061023c366004610d2c565b61075c565b6101b061024f366004610d2c565b61082f565b6101d9610262366004610bc3565b6108f6565b6101a6610275366004610db7565b61096d565b60607f00000000000000000000000000000000000000000000000000000000000000006001600160a01b031663e0391b096040518163ffffffff1660e01b81526004015f60405180830381865afa1580156102d7573d5f5f3e3d5ffd5b505050506040513d5f823e601f3d908101601f191682016040526102fe9190810190610ec0565b905090565b60607f00000000000000000000000000000000000000000000000000000000000000006001600160a01b031663e0391b096040518163ffffffff1660e01b81526004015f60405180830381865afa1580156102d7573d5f5f3e3d5ffd5b60405163c87b56dd60e01b8152600481018290526060907f00000000000000000000000000000000000000000000000000000000000000006001600160a01b03169063c87b56dd906024015b5f60405180830381865afa1580156103c6573d5f5f3e3d5ffd5b505050506040513d5f823e601f3d908101601f191682016040526103ed9190810190610f89565b92915050565b6103fb6109af565b6040516313e6c5ed60e21b81526001600160a01b037f00000000000000000000000000000000000000000000000000000000000000001690634f9b17b4906104499085908590600401610fc2565b5f604051808303815f87803b158015610460575f5ffd5b505af1158015610472573d5f5f3e3d5ffd5b505050507f9fa92af72bf356e584ca388d09a9418c9f0d187699d5cf1334e63d096c22514d82826040516104a7929190610fc2565b60405180910390a15050565b5f7f00000000000000000000000000000000000000000000000000000000000000006001600160a01b031663d082e3816040518163ffffffff1660e01b8152600401602060405180830381865afa158015610510573d5f5f3e3d5ffd5b505050506040513d601f19601f820116820180604052508101906102fe9190610fda565b61053c6109af565b6105455f6109db565b565b61057160405180608001604052805f81526020016060815260200160608152602001606081525090565b6040516313665d1360e31b8152600481018390527f00000000000000000000000000000000000000000000000000000000000000006001600160a01b031690639b32e898906024015b5f60405180830381865afa1580156105d4573d5f5f3e3d5ffd5b505050506040513d5f823e601f3d908101601f191682016040526103ed9190810190610ff1565b5f7f00000000000000000000000000000000000000000000000000000000000000006001600160a01b031663d082e3816040518163ffffffff1660e01b8152600401602060405180830381865afa158015610510573d5f5f3e3d5ffd5b60405163c87b56dd60e01b8152600481018290526060907f00000000000000000000000000000000000000000000000000000000000000006001600160a01b03169063c87b56dd906024016103ac565b6106b06109af565b6040516399523eaf60e01b81526001600160a01b037f000000000000000000000000000000000000000000000000000000000000000016906399523eaf906106fe9085908590600401610fc2565b5f604051808303815f87803b158015610715575f5ffd5b505af1158015610727573d5f5f3e3d5ffd5b505050507f2515fafa24747db25d60fb3f86f82f18e969dee98607cc863ced46768089b92982826040516104a7929190610fc2565b5f5f7f00000000000000000000000000000000000000000000000000000000000000006001600160a01b031663ac778b8f8686866040518463ffffffff1660e01b81526004016107ae93929190611022565b6020604051808303815f875af11580156107ca573d5f5f3e3d5ffd5b505050506040513d601f19601f820116820180604052508101906107ee9190610fda565b60405181815290915033907f505c173988c8b863a781e8e84a5cc1f8c4febc8e2cf77c808576ea5c995fd98c906020015b60405180910390a2949350505050565b5f5f7f00000000000000000000000000000000000000000000000000000000000000006001600160a01b031663b3639cbb8686866040518463ffffffff1660e01b815260040161088193929190611022565b6020604051808303815f875af115801561089d573d5f5f3e3d5ffd5b505050506040513d601f19601f820116820180604052508101906108c19190610fda565b60405181815290915033907f3b9855db5ceade5acf52905a568dba3964f707615bdf8c24c86eafa8a5eea3bb9060200161081f565b61092060405180608001604052805f81526020016060815260200160608152602001606081525090565b6040516313665d1360e31b8152600481018390527f00000000000000000000000000000000000000000000000000000000000000006001600160a01b031690639b32e898906024016105ba565b6109756109af565b6001600160a01b0381166109a357604051631e4fbdf760e01b81525f60048201526024015b60405180910390fd5b6109ac816109db565b50565b5f546001600160a01b031633146105455760405163118cdaa760e01b815233600482015260240161099a565b5f80546001600160a01b038381166001600160a01b0319831681178455604051919092169283917f8be0079c531659141344cd1fd0a4f28419497f9722a3daafe3b4186f6b6457e09190a35050565b5f81518084528060208401602086015e5f602082860101526020601f19601f83011685010191505092915050565b805182525f602082015160806020850152610a766080850182610a2a565b905060408301518482036040860152610a8f8282610a2a565b91505060608301518482036060860152610aa98282610a2a565b95945050505050565b5f602082016020835280845180835260408501915060408160051b8601019250602086015f5b82811015610b0957603f19878603018452610af4858351610a58565b94506020938401939190910190600101610ad8565b50929695505050505050565b80356001600160a01b0381168114610b2b575f5ffd5b919050565b5f5f5f5f5f60808688031215610b44575f5ffd5b610b4d86610b15565b9450610b5b60208701610b15565b93506040860135925060608601356001600160401b03811115610b7c575f5ffd5b8601601f81018813610b8c575f5ffd5b80356001600160401b03811115610ba1575f5ffd5b886020828401011115610bb2575f5ffd5b959894975092955050506020019190565b5f60208284031215610bd3575f5ffd5b5035919050565b602081525f610bec6020830184610a2a565b9392505050565b634e487b7160e01b5f52604160045260245ffd5b604051608081016001600160401b0381118282101715610c2957610c29610bf3565b60405290565b604051601f8201601f191681016001600160401b0381118282101715610c5757610c57610bf3565b604052919050565b5f6001600160401b03821115610c7757610c77610bf3565b50601f01601f191660200190565b5f82601f830112610c94575f5ffd5b8135610ca7610ca282610c5f565b610c2f565b818152846020838601011115610cbb575f5ffd5b816020850160208301375f918101602001919091529392505050565b5f5f60408385031215610ce8575f5ffd5b8235915060208301356001600160401b03811115610d04575f5ffd5b610d1085828601610c85565b9150509250929050565b602081525f610bec6020830184610a58565b5f5f5f60608486031215610d3e575f5ffd5b83356001600160401b03811115610d53575f5ffd5b610d5f86828701610c85565b93505060208401356001600160401b03811115610d7a575f5ffd5b610d8686828701610c85565b92505060408401356001600160401b03811115610da1575f5ffd5b610dad86828701610c85565b9150509250925092565b5f60208284031215610dc7575f5ffd5b610bec82610b15565b5f82601f830112610ddf575f5ffd5b8151610ded610ca282610c5f565b818152846020838601011115610e01575f5ffd5b8160208501602083015e5f918101602001919091529392505050565b5f60808284031215610e2d575f5ffd5b610e35610c07565b8251815260208301519091506001600160401b03811115610e54575f5ffd5b610e6084828501610dd0565b60208301525060408201516001600160401b03811115610e7e575f5ffd5b610e8a84828501610dd0565b60408301525060608201516001600160401b03811115610ea8575f5ffd5b610eb484828501610dd0565b60608301525092915050565b5f60208284031215610ed0575f5ffd5b81516001600160401b03811115610ee5575f5ffd5b8201601f81018413610ef5575f5ffd5b80516001600160401b03811115610f0e57610f0e610bf3565b8060051b610f1e60208201610c2f565b91825260208184018101929081019087841115610f39575f5ffd5b6020850192505b83831015610f7e5782516001600160401b03811115610f5d575f5ffd5b610f6c89602083890101610e1d565b83525060209283019290910190610f40565b979650505050505050565b5f60208284031215610f99575f5ffd5b81516001600160401b03811115610fae575f5ffd5b610fba84828501610dd0565b949350505050565b828152604060208201525f610fba6040830184610a2a565b5f60208284031215610fea575f5ffd5b5051919050565b5f60208284031215611001575f5ffd5b81516001600160401b03811115611016575f5ffd5b610fba84828501610e1d565b606081525f6110346060830186610a2a565b82810360208401526110468186610a2a565b9050828103604084015261105a8185610a2a565b969550505050505056fea264697066735822122066fc0447761811e35cc9529266e27ace96d6fcc0e71fe547a2be87fc945c9f6f64736f6c634300081c0033","linkReferences":{}},"methodIdentifiers":{"createCertificate(string,string,string)":"ac778b8f","createPerformance(string,string,string)":"b3639cbb","getAllCertificates()":"13fcfe80","getAllNFTs()":"e0391b09","getAllPerformances()":"0485aa62","getCertInfos(uint256)":"89812ad5","getCertificateMetadata(uint256)":"97cd8c1c","getCertificatesCount()":"8fb03a02","getNFTInfos(uint256)":"9b32e898","getPerformanceInfos(uint256)":"c944ad8e","getPerformanceMetadata(uint256)":"49a7f9d8","getPerformancesCount()":"4fb98845","onERC721Received(address,address,uint256,bytes)":"150b7a02","owner()":"8da5cb5b","renounceOwnership()":"715018a6","transferOwnership(address)":"f2fde38b","updateCertificate(uint256,string)":"99523eaf","updatePerformance(uint256,string)":"4f9b17b4"},"id":45}